:100000000C942A000C9447000C9447000C94470071
:100010000C9447000C9447000C94A0010C944700EA
:100020000C9447000C9447000C9447000C94470034
:100030000C9447000C9447000C9447000C94470024
:100040000C9447000C9447000C9447000C94470014
:100050000C94470011241FBECFE5D8E0DEBFCDBF12
:1000600010E0A0E6B0E0ECEAFCE002C005900D92E2
:10007000AE37B107D9F720E0AEE7B0E001C01D927E
:10008000A238B207E1F70E949A010C9454060C942E
:10009000000088BB82B38F7E82BB82B3806282BB4A
:1000A00082E08A95F1F700C082B38F7D82BB85E83C
:1000B0008A95F1F70000089581B3816081BB81B317
:1000C0008D7F81BB81B3846081BB81B3877F81BB1E
:1000D00081B3806381BB87B38FEF87BB2FE788E352
:1000E00091E0215080409040E1F700C0000088E39B
:1000F0000E9449008CE00E94490081E00E94490072
:100100008FE99FE00197F1F700C000008EB5806491
:100110008EBD89B7806289BF8EB581608EBD08951E
:1001200088BB82B3806182BB82B3806282BB82E083
:100130008A95F1F700C082B38F7D82BB85E88A95EE
:10014000F1F700000895CF93DF93EC0103C02196EF
:100150000E94900088818111FACFDF91CF9108959C
:1001600080E090E060E070E013C0839B0AC021E073
:1001700030E0082E02C0220F331F0A94E2F7622BF0
:10018000732BEFE8F1E03197F1F700C00000019622
:100190008031910554F380E090E00E94610220E0FC
:1001A00030E048EC52E40E94C001089520E030E0C5
:1001B00048EC52E40E94EF020E94320220E030E05C
:1001C0001BC081E090E0022E02C0880F991F0A94A4
:1001D000E2F786239723892B21F082B3846082BBC8
:1001E00003C082B38B7F82BB8FE891E00197F1F768
:1001F00000C000002F5F3F4F2031310514F30895F8
:10020000EF92FF920F931F93CF93DF93CDB7DEB79B
:1002100060970FB6F894DEBF0FBECDBF162F072F25
:10022000F82EE92E80E80E94490080E690E00E94C6
:10023000A30080EC0E9449008DE690E00E94A3009C
:10024000EF92FF920F931F9385E790E09F938F9318
:100250001F9280E18F938E010F5F1F4F1F930F93AB
:100260000E945C03C8010E94A3000FB6F894DEBF91
:100270000FBECDBF60960FB6F894DEBF0FBECDBFE8
:10028000DF91CF911F910F91FF90EF9008950F9301
:100290001F9382B3816082BB2AE12A95F1F700C0E7
:1002A00082B38E7F82BB80917E0090917F00A0916F
:1002B0008000B0918100892B8A2B8B2BA1F36CB528
:1002C0007DB5CB01A0E0B0E000917E0010917F00F1
:1002D0002091800030918100BC01CD01601B710B29
:1002E000820B930B0E94610228E23EE74CE05DE343
:1002F0000E94EF0220E030E040E05FE30E94EF0266
:100300000E94D60010927E0010927F001092800012
:10031000109281000E94B0000E9400018FEF99E6C8
:1003200028E1815090402040E1F700C000001F917B
:100330000F9108950E945C0078940E944701FDCFC0
:100340001F920F920FB60F9211248F939F93AF932A
:10035000BF93819B0CC08CB59DB5A0E0B0E08093AD
:100360007E0090937F00A0938000B0938100BF91A6
:10037000AF919F918F910F900FBE0F901F90189586
:100380000E94D4010C94B5020E94AE0258F00E9463
:10039000A70240F029F45F3F29F00C949E0251110E
:1003A0000C94E9020C94A4020E94C60268F39923FB
:1003B000B1F3552391F3951B550BBB27AA27621761
:1003C0007307840738F09F5F5F4F220F331F441F6E
:1003D000AA1FA9F335D00E2E3AF0E0E832D09150A2
:1003E0005040E695001CCAF72BD0FE2F29D0660F8F
:1003F000771F881FBB1F261737074807AB07B0E8D2
:1004000009F0BB0B802DBF01FF2793585F4F3AF0D7
:100410009E3F510578F00C949E020C94E9025F3FD8
:10042000E4F3983ED4F3869577956795B795F7955D
:100430009F5FC9F7880F911D9695879597F9089545
:10044000E1E0660F771F881FBB1F621773078407E1
:10045000BA0720F0621B730B840BBA0BEE1F88F7F0
:10046000E09508950E94CE0288F09F5798F0B92F2A
:100470009927B751B0F0E1F0660F771F881F991FD9
:100480001AF0BA95C9F714C0B13091F00E94E80291
:10049000B1E008950C94E802672F782F8827B85FA1
:1004A00039F0B93FCCF3869577956795B395D9F731
:1004B0003EF490958095709561957F4F8F4F9F4F3B
:1004C0000895E89409C097FB3EF490958095709547
:1004D00061957F4F8F4F9F4F9923A9F0F92F96E990
:1004E000BB279395F695879577956795B795F11105
:1004F000F8CFFAF4BB0F11F460FF1BC06F5F7F4FA2
:100500008F4F9F4F16C0882311F096E911C07723B3
:1005100021F09EE8872F762F05C0662371F096E8BC
:10052000862F70E060E02AF09A95660F771F881F8B
:10053000DAF7880F9695879597F9089597F99F6749
:1005400080E870E060E008959FEF80EC089500245B
:100550000A941616170618060906089500240A9428
:1005600012161306140605060895092E0394000CAE
:1005700011F4882352F0BB0F40F4BF2B11F460FF3D
:1005800004C06F5F7F4F8F4F9F4F089557FD905866
:10059000440F551F59F05F3F71F04795880F97FB47
:1005A000991F61F09F3F79F0879508951216130601
:1005B0001406551FF2CF4695F1DF08C01616170630
:1005C0001806991FF1CF8695710561050894089565
:1005D000E894BB2766277727CB0197F908950E94F7
:1005E00002030C94B5020E94A70238F00E94AE02EA
:1005F00020F0952311F00C949E020C94A402112477
:100600000C94E9020E94C60270F3959FC1F3950F06
:1006100050E0551F629FF001729FBB27F00DB11D86
:10062000639FAA27F00DB11DAA1F649F6627B00D16
:10063000A11D661F829F2227B00DA11D621F739FFF
:10064000B00DA11D621F839FA00D611D221F749F0D
:100650003327A00D611D231F849F600D211D822F54
:10066000762F6A2F11249F5750409AF0F1F088237B
:100670004AF0EE0FFF1FBB1F661F771F881F9150A8
:100680005040A9F79E3F510580F00C949E020C94B7
:10069000E9025F3FE4F3983ED4F38695779567953A
:1006A000B795F795E7959F5FC1F7FE2B880F911DD2
:1006B0009695879597F90895AEE0B0E0E2E6F3E00D
:1006C0000C942B060D891E898F89988D26E02C832A
:1006D0001A83098397FF02C080E090E801979E8308
:1006E0008D83AE01455E5F4F698D7A8DCE01019697
:1006F0000E948C034D815E8157FD0AC02F81388591
:10070000421753070CF49A01F801E20FF31F10820D
:100710002E96E4E00C944706ABE0B0E0E2E9F3E0AB
:100720000C941D066C017B018A01FC011782168264
:10073000838181FFCCC1CE0101963C01F6019381FA
:10074000F70193FD859193FF81917F01882309F43F
:10075000BAC1853239F493FD859193FF81917F0170
:10076000853229F4B60190E00E948305E7CF912CF1
:10077000212C312CFFE1F315D8F08B3279F038F4CD
:10078000803279F08332A1F4232D20611DC08D3297
:1007900061F0803369F4232D216016C0832D8260BF
:1007A000382EE32DE4603E2E2AC0F32DF8601DC0E4
:1007B00037FC2DC020ED280F2A3040F08E32B9F4DE
:1007C00036FC81C1232D2064322E19C036FE06C0AE
:1007D0008AE0989E200D1124922E11C0EAE02E9EF0
:1007E000200D1124222EF32DF0623F2E08C08C36EE
:1007F00021F4832D8068382E02C0883641F4F70139
:1008000093FD859193FF81917F018111B3CF982F43
:100810009F7D9554933028F40C5F1F4F9FE399837D
:100820000DC0833631F0833771F0833509F059C03C
:1008300021C0F801808189830E5F1F4F8824839433
:10084000912C530113C02801F2E04F0E511CF80106
:10085000A080B18036FE03C0692D70E002C06FEF4A
:100860007FEFC5010E9478054C018201F32DFF77CF
:100870003F2E16C0280122E0420E511CF801A08034
:10088000B18036FE03C0692D70E002C06FEF7FEFCC
:10089000C5010E946D054C01F32DF0683F2E8201C9
:1008A00033FC1BC0822D90E088169906B0F4B60187
:1008B00080E290E00E9483052A94F4CFF50137FC92
:1008C000859137FE81915F01B60190E00E9483051A
:1008D00021102A9421E0821A91088114910471F761
:1008E000E8C0843611F0893641F5F80137FE07C0BB
:1008F00060817181828193810C5F1F4F08C060818C
:100900007181072E000C880B990B0E5F1F4FF32D82
:10091000FF763F2E97FF09C0909580957095619561
:100920007F4F8F4F9F4FF0683F2E2AE030E0A301AA
:100930000E94BF05882E861845C0853731F4232DC7
:100940002F7EB22E2AE030E025C0932D997FB92E5C
:100950008F36C1F018F4883579F0B5C0803719F0BA
:10096000883721F0B0C0E92FE061BE2EB4FE0DC083
:10097000FB2DF460BF2E09C034FE0AC0292F26606B
:10098000B22E06C028E030E005C020E130E002C011
:1009900020E132E0F801B7FE07C0608171818281F9
:1009A00093810C5F1F4F06C06081718180E090E0F1
:1009B0000E5F1F4FA3010E94BF05882E8618FB2DD6
:1009C000FF773F2E36FE0DC0232D2E7FA22E8914D9
:1009D00058F434FE0BC032FC09C0832D8E7EA82E45
:1009E00005C0B82CA32C03C0B82C01C0B92CA4FEA0
:1009F0000FC0FE01E80DF11D8081803321F49A2D96
:100A0000997EA92E09C0A2FE06C0B394B39404C077
:100A10008A2D867809F0B394A3FC11C0A0FE06C00D
:100A2000B21488F4280C922C9B180EC0B21460F4F7
:100A3000B60180E290E00E948305B394F7CFB21430
:100A400018F42B1802C0982C212CA4FE10C0B6015B
:100A500080E390E00E948305A2FE17C0A1FC03C0C2
:100A600088E790E002C088E590E0B6010CC08A2DCE
:100A7000867859F0A1FE02C08BE201C080E2A7FC9B
:100A80008DE2B60190E00E948305891438F4B60126
:100A900080E390E00E9483059A94F7CF8A94F30153
:100AA000E80DF11D8081B60190E00E948305811060
:100AB000F5CF222009F442CEB60180E290E00E94F8
:100AC00083052A94F6CFF6018681978102C08FEFC5
:100AD0009FEF2B96E2E10C943906FC0105906150E2
:100AE00070400110D8F7809590958E0F9F1F089544
:100AF000FC016150704001900110D8F780959095ED
:100B00008E0F9F1F08950F931F93CF93DF93FB01C9
:100B1000238121FD03C08FEF9FEF2CC022FF16C061
:100B200046815781248135814217530744F4A081BF
:100B3000B1819D012F5F3F4F318320838C932681AC
:100B400037812F5F3F4F3783268314C08B01EC0121
:100B5000FB010084F185E02D0995892BE1F6D80190
:100B600016968D919C911797019617969C938E934C
:100B70001697CE01DF91CF911F910F910895FA0141
:100B8000AA27283051F1203181F1E8946F936E7FCC
:100B90006E5F7F4F8F4F9F4FAF4FB1E03ED0B4E0BD
:100BA0003CD0670F781F891F9A1FA11D680F791FFE
:100BB0008A1F911DA11D6A0F711D811D911DA11D0F
:100BC00020D009F468943F912AE0269F112430191F
:100BD000305D3193DEF6CF010895462F4770405DBA
:100BE0004193B3E00FD0C9F7F6CF462F4F70405D69
:100BF0004A3318F0495D31FD4052419302D0A9F7C4
:100C0000EACFB4E0A6959795879577956795BA95BD
:100C1000C9F700976105710508959B01AC010A2E83
:100C200006945795479537952795BA95C9F7620F5A
:100C3000731F841F951FA01D08952F923F924F92FE
:100C40005F926F927F928F929F92AF92BF92CF925C
:100C5000DF92EF92FF920F931F93CF93DF93CDB765
:100C6000DEB7CA1BDB0B0FB6F894DEBF0FBECDBFDD
:100C700009942A88398848885F846E847D848C84AE
:100C80009B84AA84B984C884DF80EE80FD800C81B7
:100C90001B81AA81B981CE0FD11D0FB6F894DEBF9A
:0C0CA0000FBECDBFED010895F894FFCF0A
:100CAC005761746572204C6576656C3A004C6576BC
:0E0CBC00656C3A2000252E326620636D000024
:00000001FF
