S010000065766D5F6D61696E2E73726563C8
S11300000C942A000C9447000C9447000C9447006D
S11300100C9447000C9447000C9447000C94470040
S11300200C9447000C9447000C9447000C94470030
S11300300C9447000C9447000C9447000C94470020
S11300400C9447000C9447000C9447000C94470010
S11300500C94470011241FBECFE5D8E0DEBFCDBF0E
S113006010E0A0E6B0E0E8EEF4E002C005900D92E6
S1130070A23BB107D9F720E0A2EBB0E001C01D928A
S1130080A83BB207E1F70E9463010C9472020C943E
S1130090000082BB85B38E7B85BB85B3806885BB3E
S11300A087EC90E00197F1F700C0000085B38F77EB
S11300B085BB87EC90E00197F1F700C0000008953C
S11300C082BB85B38F7B85BB85B3816885BB87EC99
S11300D090E00197F1F700C0000085B38F7785BBEE
S11300E087EC90E00197F1F700C0000008958FEFCE
S11300F081BB84BB85B38F7785BB8FE99FE0019774
S1130100F1F700C0000088E30E9449008EE00E94DD
S1130110490081E00E9449008FE99FE00197F1F7CF
S113012000C0000086E00E94490008950F931F93C9
S1130130CF93DF938C01C0E0D0E003C021960E94EE
S11301406000F801EC0FFD1F80818111F7CFDF9172
S1130150CF911F910F9108958FEF81BB90EF9ABBC0
S11301608BBB08950E94AC008FEE8BBB89B38F705C
S11301708F30A1F48FED8BBB89B38F708F3081F4F6
S11301808FEB8BBB89B38F708F3061F48FE78BBBA0
S113019089B38F708F3031F3E3E005C0E0E003C032
S11301A0E1E001C0E2E08E3049F4F0E0EE0FFF1F21
S11301B0EE0FFF1FE05AFF4F808108958D3049F400
S11301C0F0E0EE0FFF1FEE0FFF1FE05AFF4F81819B
S11301D008958B3049F4F0E0EE0FFF1FEE0FFF1F80
S11301E0E05AFF4F82810895F0E0EE0FFF1FEE0FFB
S11301F0FF1FE05AFF4F8381089580E790E00E943B
S113020096000E94B2008133C9F42091B400309169
S1130210B5002F5F3F4F3093B5002093B4000E9488
S113022060002FEF89E698E1215080409040E1F78B
S113023000C0000081E00E94490008958233C9F49F
S11302402091B2003091B3002F5F3F4F3093B30041
S11302502093B2000E9460002FEF89E698E12150BC
S113026080409040E1F700C0000081E00E94490016
S113027008958333C9F42091B6003091B7002F5FFD
S11302803F4F3093B7002093B6000E9460002FEFD9
S113029089E698E1215080409040E1F700C00000D9
S11302A081E00E94490008950E9460002FEF89E6D2
S11302B098E1215080409040E1F700C0000081E0C7
S11302C00E9449000895CF93DF93CDB7DEB76497BA
S11302D00FB6F894DEBF0FBECDBF1092B5001092DA
S11302E0B4001092B3001092B2001092B7001092B2
S11302F0B6000E94770017BA86E790E00E94960045
S11303002FEF89E698E1215080409040E1F700C04A
S1130310000080E80E9449008FEF86BB89BBB39937
S113032003C00E94FD00FBCFB1995BC04AE0BE014F
S11303306F5F7F4F8091B4009091B5000E943D02A1
S113034089E790E00E949600CE0101960E949600F3
S11303502FEF89E698E1215080409040E1F700C0FA
S1130360000081E00E9449004AE0BE016F5F7F4FB8
S11303708091B2009091B3000E943D0287E890E022
S11303800E949600CE0101960E9496002FEF89E606
S113039098E1215080409040E1F700C0000081E0E6
S11303A00E9449004AE0BE016F5F7F4F8091B60012
S11303B09091B7000E943D0286E990E00E94960069
S11303C0CE0101960E9496002FEF89E698E1215014
S11303D080409040E1F700C0000081E00E944900A5
S11303E09ECFB0992BC02091B4003091B50080917C
S11303F0B2009091B300820F931F2091B600309108
S1130400B7004AE0BE016F5F7F4F820F931F0E94C7
S11304103D0285EA90E00E949600CE0101960E947A
S113042096002FEF89E698E1215080409040E1F753
S113043000C0000081E00E94490071CFB2996FCFE3
S11304408CEA90E00E9496002FEF89E698E1215013
S113045080409040E1F700C000001092B500109277
S1130460B4001092B3001092B2001092B700109230
S1130470B60081E00E94490052CFBB274A3031F4D4
S1130480992322F4BDE2909581959F4F0C944902E3
S1130490BB27FB015527AA27880F991FAA1FA4175A
S11304A010F0A41B83955051B9F7A05DAA3308F04E
S11304B0A95DA193009779F7B111B1931192CB0182
S11304C00C946202DC01FC01672F71917723E1F740
S11304D0329704C07C916D9370836291AE17BF070D
S10B04E0C8F30895F894FFCF5E
S11304E83738392F3435362A3132332D20303D2BE5
S11304F852656164790048490043616E64696461C6
S1130508746520313A20002043616E646964617423
S11305186520323A20002043616E64696461746521
S113052820333A2000546F74616C2000436C656179
S105053872004B
S9030000FC
