:100000000C942A000C9447000C9447000C94470071
:100010000C9447000C9447000C9447000C94470044
:100020000C9447000C9447000C9447000C94470034
:100030000C9447000C9447000C9447000C94470024
:100040000C9447000C9447000C9447000C94470014
:100050000C94470011241FBECFE5D8E0DEBFCDBF12
:1000600010E0A0E6B0E0EAE0F4E002C005900D92F6
:10007000A239B107D9F720E0A2E9B0E001C01D9292
:10008000A839B207E1F70E9434010C9403020C94E2
:10009000000082BB85B38F7985BB85B3806885BB43
:1000A00087EC90E00197F1F700C0000085B38F77EF
:1000B00085BB87EC90E00197F1F700C00000089540
:1000C00082BB85B38F7B85BB85B3806A85BB87EC9C
:1000D00090E00197F1F700C0000085B38F7785BBF2
:1000E00087EC90E00197F1F700C0000008958FEFD2
:1000F00081BB84BB85B38F7785BB8FE99FE0019778
:10010000F1F700C0000088E30E9449008EE00E94E1
:10011000490081E00E9449008FE99FE00197F1F7D3
:1001200000C0000086E00E94490008950F931F93CD
:10013000CF93DF938C01C0E0D0E003C021960E94F2
:100140006000F801EC0FFD1F80818111F7CFDF9176
:10015000CF911F910F9108958FEF81BB90EF9ABBC4
:100160008BBB08950E94AC008FEE8BBB89B38F7060
:100170008F30A1F48FED8BBB89B38F708F3081F4FA
:100180008FEB8BBB89B38F708F3061F48FE78BBBA4
:1001900089B38F708F3031F3E3E005C0E0E003C036
:1001A000E1E001C0E2E08E3049F4F0E0EE0FFF1F25
:1001B000EE0FFF1FE05AFF4F808108958D3049F404
:1001C000F0E0EE0FFF1FEE0FFF1FE05AFF4F81819F
:1001D00008958B3049F4F0E0EE0FFF1FEE0FFF1F84
:1001E000E05AFF4F82810895F0E0EE0FFF1FEE0FFF
:1001F000FF1FE05AFF4F8381089580E790E00E943F
:1002000096000E94B200813369F48091940090912D
:1002100095000196909395008093940081E00E9450
:1002200049000895823369F480919200909193007F
:100230000196909393008093920081E00E94490080
:100240000895833369F48091960090919700019608
:10025000909397008093960081E00E944900089552
:1002600081E00E9449000895CF93DF93CDB7DEB7B8
:1002700064970FB6F894DEBF0FBECDBF1092950005
:100280001092940010929300109292001092970096
:10029000109296000E94770017BA80E80E944900E9
:1002A0008FEF86BB89BBB3990CC00E94FD002FEF76
:1002B00089E698E1215080409040E1F700C00000BD
:1002C000F2CFB1991FC04AE0BE016F5F7F4F8091AE
:1002D0009400909195000E94CE0186E790E00E94E4
:1002E0009600CE0101960E9496002FEF87EA91E6D4
:1002F000215080409040E1F700C0000081E00E9462
:100300004900D1CFB0992BC0209194003091950035
:100310008091920090919300820F931F20919600FC
:10032000309197004AE0BE016F5F7F4F820F931FAD
:100330000E94CE0184E890E00E949600CE010196D2
:100340000E9496002FEF87EA91E62150804090406E
:10035000E1F700C0000081E00E944900A4CFB299FB
:10036000A2CF8BE890E00E9496002FEF87EA91E6FB
:10037000215080409040E1F700C0000010929500AD
:100380001092940010929300109292001092970095
:100390001092960081E00E94490085CFBB274A3029
:1003A00031F4992322F4BDE2909581959F4F0C94EE
:1003B000DA01BB27FB015527AA27880F991FAA1F1F
:1003C000A41710F0A41B83955051B9F7A05DAA3370
:1003D00008F0A95DA193009779F7B111B19311923B
:1003E000CB010C94F301DC01FC01672F71917723A1
:1003F000E1F7329704C07C916D9370836291AE17E0
:0A040000BF07C8F30895F894FFCF7A
:10040A003738392F3435362A3132332D20303D2BC7
:10041A0052656164790043616E6469646174652040
:10042A00313A2000546F74616C2000436C6561722C
:02043A000000C0
:00000001FF
