S010000065766D5F6D61696E2E73726563C8
S11300000C942A000C9447000C9447000C9447006D
S11300100C9447000C9447000C9447000C94470040
S11300200C9447000C9447000C9447000C94470030
S11300300C9447000C9447000C9447000C94470020
S11300400C9447000C9447000C9447000C94470010
S11300500C94470011241FBECFE5D8E0DEBFCDBF0E
S113006010E0A0E6B0E0ECECF3E002C005900D92E5
S1130070AC38B107D9F720E0ACE8B0E001C01D927C
S1130080A239B207E1F70E9434010C94E4010C9404
S1130090000082BB85B38F7985BB85B3806885BB3F
S11300A087EC90E00197F1F700C0000085B38F77EB
S11300B085BB87EC90E00197F1F700C0000008953C
S11300C082BB85B38F7B85BB85B3806A85BB87EC98
S11300D090E00197F1F700C0000085B38F7785BBEE
S11300E087EC90E00197F1F700C0000008958FEFCE
S11300F081BB84BB85B38F7785BB8FE99FE0019774
S1130100F1F700C0000088E30E9449008EE00E94DD
S1130110490081E00E9449008FE99FE00197F1F7CF
S113012000C0000086E00E94490008950F931F93C9
S1130130CF93DF938C01C0E0D0E003C021960E94EE
S11301406000F801EC0FFD1F80818111F7CFDF9172
S1130150CF911F910F9108958FEF81BB90EF9ABBC0
S11301608BBB08950E94AC008FEE8BBB89B38F705C
S11301708F30A1F48FED8BBB89B38F708F3081F4F6
S11301808FEB8BBB89B38F708F3061F48FE78BBBA0
S113019089B38F708F3031F3E3E005C0E0E003C032
S11301A0E1E001C0E2E08E3049F4F0E0EE0FFF1F21
S11301B0EE0FFF1FE05AFF4F808108958D3049F400
S11301C0F0E0EE0FFF1FEE0FFF1FE05AFF4F81819B
S11301D008958B3049F4F0E0EE0FFF1FEE0FFF1F80
S11301E0E05AFF4F82810895F0E0EE0FFF1FEE0FFB
S11301F0FF1FE05AFF4F8381089580E790E00E943B
S113020096000E94B200813369F480918E0090912F
S11302108F00019690938F0080938E0081E00E945E
S113022049000895823369F480918C0090918D0087
S1130230019690938D0080938C0081E00E94490088
S11302400895833369F48091900090919100019610
S1130250909391008093900081E00E94490008955A
S113026081E00E9449000895CF93DF93CDB7DEB7B4
S113027064970FB6F894DEBF0FBECDBF10928F0007
S113028010928E0010928D0010928C0010929100AA
S1130290109290000E94770017BA80E80E944900EB
S11302A08FEF86BB89BBB3990CC00E94FD002FEF72
S11302B089E698E1215080409040E1F700C00000B9
S11302C0F2CFB1991FC04AE0BE016F5F7F4F8091AA
S11302D08E0090918F000E94AF0186E790E00E940B
S11302E09600CE0101960E9496002FEF87EA91E6D0
S11302F0215080409040E1F700C0000081E00E945E
S11303004900D1CFB099CFCF20918E0030918F008A
S113031080918C0090918D00820F931F209190000A
S1130320309191004AE0BE016F5F7F4F820F931FAF
S11303300E94AF0184E890E00E949600CE010196ED
S11303400E9496002FEF87EA91E62150804090406A
S1130350E1F700C0000081E00E944900A4CFBB2760
S11303604A3031F4992322F4BDE2909581959F4F50
S11303700C94BB01BB27FB015527AA27880F991FA3
S1130380AA1FA41710F0A41B83955051B9F7A05DC0
S1130390AA3308F0A95DA193009779F7B111B1933D
S11303A01192CB010C94D401DC01FC01672F7191F3
S11303B07723E1F7329704C07C916D937083629147
S10F03C0AE17BF07C8F30895F894FFCFF0
S11303CC3738392F3435362A3132332D20303D2B02
S11303DC52656164790043616E646964617465207B
S10F03EC313A2000546F74616C20000052
S9030000FC
