S00A000065322E7372656383
S11300000C942A000C9413010C9447000C944700A0
S11300100C9447000C9447000C9447000C94470040
S11300200C9447000C9447000C9447000C94470030
S11300300C9447000C9447000C9447000C94470020
S11300400C9447000C9447000C9447000C94470010
S11300500C94470011241FBECFE5D8E0DEBFCDBF0E
S113006010E0A0E6B0E0EAE3F3E002C005900D92F0
S1130070A238B107D9F720E0A2E8B0E001C01D9290
S1130080A638B207E1F70E94B9000C949B010C94C6
S1130090000082B3806282BB0000000082B38F7DC7
S11300A082BB08951ABA82B3806182BB82B3877F10
S11300B082BB02C00E944900DF99FCCF8FEF8ABB4C
S11300C00895CF93C82F0E945200CBBB82B38F7E7A
S11300D082BB82B3877F82BB0E9449001BBACF9147
S11300E0089581B3886381BB8FE295E70197F1F7A7
S11300F000C0000081E00E9461008FE99FE0019749
S1130100F1F700C0000088E30E94610095E89A9529
S1130110F1F700008EE00E94610085E88A95F1F70E
S113012000000895CF93C82F0E945200CBBB82B326
S11301308F7E82BB82B3886082BB0E9449001BBA57
S1130140CF910895CF93DF93EC0103C021960E94D1
S1130150920088818111FACFDF91CF910895E62F23
S1130160F0E0E15AFF4F9081890F81580E946100AD
S11301700895CF93DF93CDB7DEB760970FB6F894A9
S1130180DEBF0FBECDBF0E9471008BEF81BB2FE796
S113019088E391E0215080409040E1F700C00000E6
S11301A00E9471008BB780648BBF85B7816085BF67
S11301B0789482B3816082BB28E22A95F1F782B3F6
S11301C08E7F82BB80918400909185006AE370E009
S11301D00E943E018B0182E690E00E94A20062E050
S11301E081E00E94AF0082E790E00E94A2004AE012
S11301F0BE016F5F7F4FC8010E946601CE01019668
S11302000E94A2008CE790E00E94A20062E08DE0D0
S11302100E94AF008EE790E00E94A20061E081E0BE
S11302200E94AF00C6CF1F920F920FB60F921124F7
S11302308F939F938091820090918300892B51F436
S11302408EB581608EBD81E090E0909383008093B1
S113025082000DC01EBC8CB59DB590938500809323
S113026084001DBC1CBC10928300109282009F91DC
S11302708F910F900FBE0F901F90189597FB072E2C
S113028016F4009407D077FD09D00E94520107FCB0
S113029005D03EF4909581959F4F08957095619592
S11302A07F4F0895AA1BBB1B51E107C0AA1FBB1FA8
S11302B0A617B70710F0A61BB70B881F991F5A95EE
S11302C0A9F780959095BC01CD010895BB274A30CC
S11302D031F4992322F4BDE2909581959F4F0C94BB
S11302E07201BB27FB015527AA27880F991FAA1F54
S11302F0A41710F0A41B83955051B9F7A05DAA333D
S113030008F0A95DA193009779F7B111B193119207
S1130310CB010C948B01DC01FC01672F71917723D5
S1130320E1F7329704C07C916D9370836291AE17AC
S10D0330BF07C8F30895F894FFCF47
S113033A004044697374616E63652053656E736F1C
S113034A720044697374616E63653D002000636DD5
S105035A00009D
S9030000FC
