S013000065766D5F757064617465642E7372656383
S11300000C942A000C9447000C9447000C9447006D
S11300100C9447000C9447000C9447000C94470040
S11300200C9447000C9447000C9447000C94470030
S11300300C9447000C9447000C9447000C94470020
S11300400C9447000C9447000C9447000C94470010
S11300500C94470011241FBECFE5D8E0DEBFCDBF0E
S113006011E0A0E6B0E0E2E9F7E002C005900D92ED
S1130070AC35B107D9F721E0ACE5B1E001C01D9280
S1130080A236B207E1F70E9484010C94C7030C94D2
S1130090000082BB85B38E7B85BB85B3806885BB3E
S11300A087EC90E00197F1F700C0000085B38F77EB
S11300B085BB87EC90E00197F1F700C0000008953C
S11300C082BB85B38F7B85BB85B3816885BB87EC99
S11300D090E00197F1F700C0000085B38F7785BBEE
S11300E087EC90E00197F1F700C0000008958FEFCE
S11300F081BB84BB85B38F7785BB8FE99FE0019774
S1130100F1F700C0000088E30E9449008EE00E94DD
S1130110490081E00E9449008FE99FE00197F1F7CF
S113012000C0000086E00E94490008950F931F93C9
S1130130CF93DF938C01C0E0D0E003C021960E94EE
S11301406000F801EC0FFD1F80818111F7CFDF9172
S1130150CF911F910F91089587B3807F87BB88B398
S11301608F6088BB08958FEF81BB90EF9ABB8BBBE8
S11301700895B09B09C0B19B0AC0B29B0BC0B39B4E
S11301800CC080E090E0089581E090E0089582E062
S113019090E0089583E090E0089584E090E008956D
S11301A00E94B3008FEE8BBB89B38F708F30A1F4A4
S11301B08FED8BBB89B38F708F3081F48FEB8BBB4A
S11301C089B38F708F3061F48FE78BBB89B38F70E5
S11301D08F3031F3E3E005C0E0E003C0E1E001C0AB
S11301E0E2E08E3049F4F0E0EE0FFF1FEE0FFF1F48
S11301F0E05AFF4F808108958D3049F4F0E0EE0F0E
S1130200FF1FEE0FFF1FE05AFF4F818108958B30CF
S113021049F4F0E0EE0FFF1FEE0FFF1FE05AFF4F0F
S113022082810895F0E0EE0FFF1FEE0FFF1FE05AEA
S1130230FF4F8381089581E00E94490080E790E0A8
S11302400E9496000E94D0008133C9F420915E017F
S113025030915F012F5F3F4F30935F0120935E0128
S11302600E9460002FEF84E39CE021508040904086
S1130270E1F700C0000081E00E9449000895823344
S1130280C9F420915C0130915D012F5F3F4F3093A1
S11302905D0120935C010E9460002FEF84E39CE0E9
S11302A0215080409040E1F700C0000081E00E94AE
S11302B0490008958333C9F42091600130916101AC
S11302C02F5F3F4F30936101209360010E946000D3
S11302D02FEF84E39CE0215080409040E1F700C080
S11302E0000081E00E94490008950E9460002FEF01
S11302F084E39CE0215080409040E1F700C000007E
S113030081E00E9449000895CF93DF93CDB7DEB713
S113031064970FB6F894DEBF0FBECDBF10925F0195
S113032010925E0110925D0110925C0110926101C5
S1130330109260010E94AC000E94770087E790E071
S11303400E9496002FEF80E792E021508040904079
S1130350E1F700C0000081E00E94490081E80E94AA
S1130360490087E790E00E9496002FEF80E792E033
S1130370215080409040E1F700C0000081E00E94DD
S1130380490082E80E94490087E790E00E949600B5
S11303902FEF80E792E0215080409040E1F700C0C9
S11303A0000081E00E94490083E80E94490087E739
S11303B090E00E9496002FEF80E792E02150804069
S11303C09040E1F700C0000081E00E9449002FEF57
S11303D084E39CE0215080409040E1F700C000009D
S11303E081E890E00E9496000E94B9008130910556
S11303F051F481E00E9449000E941B0184E890E0CE
S11304000E949600F1CF8230910509F037C181E056
S11304100E9449004AE0BE016F5F7F4F80915E01F8
S113042090915F010E94920383E990E00E949600FC
S1130430CE0101960E9496002FEF84E39CE02150A8
S113044080409040E1F700C0000081E00E94490034
S11304504AE0BE016F5F7F4F80915C0190915D0126
S11304600E94920382EA90E00E949600CE010196D7
S11304700E9496002FEF84E39CE02150804090403E
S1130480E1F700C0000081E00E9449004AE0BE019B
S11304906F5F7F4F80916001909161010E94920390
S11304A081EB90E00E949600CE0101960E94960096
S11304B02FEF84E39CE0215080409040E1F700C09E
S11304C0000081E00E94490020915E0130915F01AB
S11304D080915C0190915D0182179307FCF4409137
S11304E060015091610142175307C4F480EC90E01D
S11304F00E94960080EC0E9449008AEC90E00E94E1
S113050096002FEF84E39CE0215080409040E1F777
S113051000C0000081E00E94490066CF4091600164
S11305205091610148175907DCF428173907C4F4BE
S113053080EC90E00E94960080EC0E94490089EDD6
S113054090E00E9496002FEF84E39CE021508040CD
S11305509040E1F700C0000081E00E94490044CFD0
S113056084179507DCF424173507C4F480EC90E075
S11305700E94960080EC0E94490088EE90E00E9460
S113058096002FEF84E39CE0215080409040E1F7F7
S113059000C0000081E00E94490026CF28173907D7
S11305A0D9F484179507C1F480EC90E00E9496007A
S11305B080EC0E94490087EF90E00E9496002FEFA4
S11305C084E39CE0215080409040E1F700C00000AB
S11305D081E00E94490008CF28173907C1F480EC54
S11305E090E00E94960080EC0E9449008AE091E02D
S11305F00E9496002FEF84E39CE0215080409040BD
S1130600E1F700C0000081E00E944900EDCE24170C
S11306103507C1F480EC90E00E94960080EC0E94C3
S113062049008DE191E00E9496002FEF84E39CE065
S1130630215080409040E1F700C0000081E00E941A
S11306404900D2CE8417950709F0CECE80EC90E015
S11306500E94960080EC0E94490080E391E00E9491
S113066096002FEF84E39CE0215080409040E1F716
S113067000C0000081E00E944900B6CE833091059D
S113068071F581E00E94490020915E0130915F0183
S113069080915C0190915D01820F931F2091600114
S11306A0309161014AE0BE016F5F7F4F820F931F5B
S11306B00E94920383E491E00E949600CE01019689
S11306C00E9496002FEF84E39CE0215080409040EC
S11306D0E1F700C0000081E00E94490085CE049744
S11306E009F082CE81E00E94490082E591E00E94F7
S11306F096002FEF84E39CE0215080409040E1F786
S113070000C0000010925F0110925E0110925D0122
S113071010925C01109261011092600181E00E94CC
S1130720490062CEBB274A3031F4992322F4BDE25A
S1130730909581959F4F0C949E03BB27FB015527F1
S1130740AA27880F991FAA1FA41710F0A41B83952A
S11307505051B9F7A05DAA3308F0A95DA1930097A1
S113076079F7B111B1931192CB010C94B703DC0169
S1130770FC01672F71917723E1F7329704C07C91D4
S11307806D9370836291AE17BF07C8F30895F89410
S1050790FFCF95
S1130792414243443134372A3235383033363923EF
S11307A2205265616479005F5F5F45564D5F5F5F0C
S11307B20048690020566F74652061636365707434
S11307C26564002043616E64696461746520313A32
S11307D220002043616E64696461746520323A20AA
S11307E2002043616E64696461746520333A2000B9
S11307F22057494E4E4552203A002043616E6469A7
S11308026461746520312121002043616E6469644E
S113081261746520322121002043616E6469646140
S1130822746520332121002043616E64696461741C
S11308326520312C3226332121002043616E646904
S11308426461746520312026203221210020436115
S11308526E6469646174652031202620332121008D
S11308622043616E646964617465203220262033FA
S113087221210020546F74616C20566F7465733D9E
S10F0882200020436C6561722E2E2E00B5
S9030000FC
