S013000065766D5F757064617465642E7372656383
S11300000C942A000C9447000C9447000C9447006D
S11300100C9447000C9447000C9447000C94470040
S11300200C9447000C9447000C9447000C94470030
S11300300C9447000C9447000C9447000C94470020
S11300400C9447000C9447000C9447000C94470010
S11300500C94470011241FBECFE5D8E0DEBFCDBF0E
S113006011E0A0E6B0E0E4EEF6E002C005900D92E7
S1130070AC33B107D9F721E0ACE3B1E001C01D9284
S1130080A434B207E1F70E9481010C9470030C942C
S1130090000082BB85B38E7B85BB85B3806885BB3E
S11300A087EC90E00197F1F700C0000085B38F77EB
S11300B085BB87EC90E00197F1F700C0000008953C
S11300C082BB85B38F7B85BB85B3816885BB87EC99
S11300D090E00197F1F700C0000085B38F7785BBEE
S11300E087EC90E00197F1F700C0000008958FEFCE
S11300F081BB84BB85B38F7785BB8FE99FE0019774
S1130100F1F700C0000088E30E9449008EE00E94DD
S1130110490081E00E9449008FE99FE00197F1F7CF
S113012000C0000086E00E94490008950F931F93C9
S1130130CF93DF938C01C0E0D0E003C021960E94EE
S11301406000F801EC0FFD1F80818111F7CFDF9172
S1130150CF911F910F91089587B3807F87BB88B398
S11301608F6088BB08958FEF81BB90EF9ABB8BBBE8
S11301700895B09B09C0B19B0AC0B29B0BC0B39B4E
S11301800CC080E090E0089581E090E0089582E062
S113019090E0089583E090E0089584E090E008956D
S11301A00E94B3008FEE8BBB89B38F708F30A1F4A4
S11301B08FED8BBB89B38F708F3081F48FEB8BBB4A
S11301C089B38F708F3061F48FE78BBB89B38F70E5
S11301D08F3031F3E3E005C0E0E003C0E1E001C0AB
S11301E0E2E08E3049F4F0E0EE0FFF1FEE0FFF1F48
S11301F0E05AFF4F808108958D3049F4F0E0EE0F0E
S1130200FF1FEE0FFF1FE05AFF4F818108958B30CF
S113021049F4F0E0EE0FFF1FEE0FFF1FE05AFF4F0F
S113022082810895F0E0EE0FFF1FEE0FFF1FE05AEA
S1130230FF4F8381089580E790E00E9496000E941A
S1130240D0008133C9F420914001309141012F5FE6
S11302503F4F30934101209340010E9460002FEFF3
S113026089E698E1215080409040E1F700C0000009
S113027081E00E94490008958233C9F420913E012F
S113028030913F012F5F3F4F30933F0120933E0158
S11302900E9460002FEF89E698E121508040904051
S11302A0E1F700C0000081E00E9449000895833313
S11302B0C9F420914201309143012F5F3F4F3093A5
S11302C04301209342010E9460002FEF89E698E1E8
S11302D0215080409040E1F700C0000081E00E947E
S11302E0490008950E9460002FEF89E698E12150AB
S11302F080409040E1F700C0000081E00E94490086
S11303000895CF93DF93CDB7DEB764970FB6F89413
S1130310DEBF0FBECDBF109241011092400110927A
S11303203F0110923E01109243011092420110923B
S11303303D0110923C010E94AC000E94770086E7C8
S113034090E00E9496002FEF89E698E121508040CA
S11303509040E1F700C0000080E80E9449000E943C
S1130360B9008130910519F40E941B01F8CF823045
S1130370910509F02EC14AE0BE016F5F7F4F809165
S11303804001909141010E943B038CE790E00E9460
S11303909600CE0101960E9496002FEF89E698E11F
S11303A0215080409040E1F700C0000081E00E94AD
S11303B049004AE0BE016F5F7F4F80913E019091FA
S11303C03F010E943B038AE890E00E949600CE0120
S11303D001960E9496002FEF89E698E12150804013
S11303E09040E1F700C0000081E00E9449004AE02B
S11303F0BE016F5F7F4F80914201909143010E9443
S11304003B0389E990E00E949600CE0101960E9488
S113041096002FEF89E698E1215080409040E1F763
S113042000C0000081E00E94490020914001309109
S1130430410180913E0190913F0182179307FCF4A2
S1130440409142015091430142175307C4F488EA92
S113045090E00E94960080EC0E94490082EB90E0BC
S11304600E9496002FEF89E698E121508040904049
S1130470E1F700C0000081E00E94490070CF281716
S11304803907F9F4409142015091430184179507CB
S1130490C1F488EA90E00E94960080EC0E94490032
S11304A081EC90E00E9496002FEF89E698E12150BC
S11304B080409040E1F700C0000081E00E944900C4
S11304C04ECF28173907C1F488EA90E00E949600BD
S11304D080EC0E94490084ED90E00E9496002FEF8A
S11304E089E698E1215080409040E1F700C0000087
S11304F081E00E94490033CF409142015091430171
S113050024173507C1F488EA90E00E94960080EC35
S11305100E94490087EE90E00E9496002FEF89E642
S113052098E1215080409040E1F700C0000081E054
S11305300E94490014CF84179507C1F489EA90E01A
S11305400E94960080EC0E9449008AEF90E00E948D
S113055096002FEF89E698E1215080409040E1F722
S113056000C0000081E00E944900F9CE48175907F5
S1130570C4F488EA90E00E94960080EC0E9449004E
S11305808DE091E00E9496002FEF89E698E12150DA
S113059080409040E1F700C0000081E00E944900E3
S11305A0DECE88EA90E00E94960080EC0E9449002A
S11305B08CE191E00E9496002FEF89E698E12150AA
S11305C080409040E1F700C0000081E00E944900B3
S11305D0C6CE8330910579F52091400130914101D7
S11305E080913E0190913F01820F931F209142011F
S11305F0309143014AE0BE016F5F7F4F820F931F2A
S11306000E943B038BE291E00E949600CE0101968A
S11306100E9496002FEF89E698E121508040904097
S1130620E1F700C0000081E00E944900CE0101967C
S11306300E94960094CE049709F091CE83E391E052
S11306400E9496002FEF89E698E121508040904067
S1130650E1F700C000001092410110924001109295
S11306603F0110923E01109243011092420181E039
S11306700E94490074CEBB274A3031F4992322F4F6
S1130680BDE2909581959F4F0C944703BB27FB01D6
S11306905527AA27880F991FAA1FA41710F0A41B77
S11306A083955051B9F7A05DAA3308F0A95DA193D1
S11306B0009779F7B111B1931192CB010C946003B7
S11306C0DC01FC01672F71917723E1F7329704C0B5
S11306D07C916D9370836291AE17BF07C8F3089540
S10706E0F894FFCFB8
S11306E43437392F3538362A3132332D20303D2BE7
S11306F452656164790048492E2E2E0043616E646C
S1130704696461746520313A20002043616E646930
S11307146461746520323A20002043616E64696424
S113072461746520333A20002057494E4E455220C7
S11307343A002043616E6469646174652031212147
S1130744002043616E64696461746520312C32262F
S1130754332121002043616E64696461746520312E
S1130764202620322121002043616E64696461746F
S1130774652031202620332121002043616E6469E1
S113078464617465203220262033212100204361D2
S11307946E64696461746520322121002043616EB2
S11307A46469646174652033212100546F74616C3D
S10F07B43D2000436C6561722E2E2E0067
S9030000FC
