:100000000C942A000C9434000C9434000C943400AA
:100010000C9434000C9434000C9434000C94340090
:100020000C9434000C9434000C9434000C94340080
:100030000C9434000C9434000C9434000C94340070
:100040000C9436000C9434000C9434000C9434005E
:100050000C94340011241FBECFE5D8E0DEBFCDBF25
:100060000E9455000C9463000C9400001F920F92A4
:100070000FB60F9211248F939F9384B185BB85B1E6
:1000800082BB84B195B1853B910520F088B38FEF99
:1000900088BB01C018BA86B1806486B99F918F91E0
:1000A0000F900FBE0F901F9018958FEF81BB87BBED
:1000B00084BB1ABA78948FE886B980EC87B986B188
:0A00C000806486B9FFCFF894FFCFEB
:00000001FF
